:020000040800F2
:1000000078C9002029030008B1530008754700088B
:10001000AD530008F9080008057C00080000000046
:10002000000000000000000000000000690200085D
:10003000C70B000800000000C5020008655B00084F
:100040004303000843030008430300084303000878
:100050004303000843030008C90B000843030008DA
:1000600043030008D30B0008DD0B0008430300081E
:100070004303000843030008430300084303000848
:100080004303000843030008430300084303000838
:10009000FD0800084303000843030008E70B0008BD
:1000A0004303000843030008430300084303000818
:1000B0004303000843030008430300084303000808
:1000C00043030008430300084303000843030008F8
:1000D0004303000843030008430300083D6300088E
:1000E00043030008430300084303000843030008D8
:1000F0004303000843030008430300086D09000898
:1001000043030008430300084303000843030008B7
:1001100043030008430300084303000843030008A7
:1001200043030008E9090008F9090008430300082F
:100130004303000843030008430300084303000887
:100140000D0900084303000843030008B5530008E5
:1001500043030008C90A0008D90A00087D640008A2
:100160004303000843030008430300084303000857
:100170004303000843030008430300080000000095
:10018000430300084303000800F002F800F05CF8A5
:100190000AA090E8000C82448344AAF10107DA45E2
:1001A00001D100F051F8AFF2090EBAE80F0013F0D8
:1001B000010F18BFFB1A43F001031847F8C10000F4
:1001C00018C200000A444FF0000C10F8013B13F075
:1001D000070408BF10F8014B1D1108BF10F8015BA0
:1001E000641E05D010F8016B641E01F8016BF9D193
:1001F00013F0080F1EBF10F8014BAD1C0C1B09D1EA
:100200006D1E58BF01F801CBFAD505E014F8016B5B
:1002100001F8016B6D1EF9D59142D6D370470000ED
:100220000023002400250026103A28BF78C1FBD8FF
:10023000520728BF30C148BF0B6070471FB50BF095
:1002400043FF1FBD10B510BD00F0EDF91146FFF7DB
:10025000F5FF08F07BFE00F00BFA03B4FFF7F2FFA6
:1002600003BC00F01BFA00002C4B19680868B0E8CA
:10027000F04F80F30988BFF36F8F4FF0000080F3D9
:10028000118870470000000008480068006880F38B
:1002900008884FF0000080F3148862B661B6BFF39F
:1002A0004F8FBFF36F8F00DF00BF00BF08ED00E08E
:1002B000DFF80C00016841F470010160704700BF75
:1002C00088ED00E0EFF30980BFF36F8F134B1A68DE
:1002D0001EF0100F08BF20ED108A20E9F04F1060CB
:1002E00009B44FF0500080F31188BFF34F8FBFF374
:1002F0006F8F0AF0BDF84FF0000080F3118809BC41
:1003000019680868B0E8F04F1EF0100F08BFB0EC95
:10031000108A80F30988BFF36F8F70475000002068
:10032000EFF30580704700000948804709480047FF
:10033000FEE7FEE7FEE7FEE7FEE7FEE7FEE7FEE795
:10034000FEE7FEE704480549054A064B70470000F2
:10035000455C0008890100087889002078C90020E0
:1003600078A9002078A9002053EA020C00F06980E7
:100370002DE9F04B4FF00006002B1FBFB3FA83F5B9
:1003800003FA05F424FA05F65E4012BF1643B2FAEA
:1003900082F502FA05F4C5F120051EBF22FA05FC1C
:1003A00044EA0C04203556EA044C4FEA144418BFC2
:1003B000641C4FF000084FF00009904271EB030CF1
:1003C00039D3002919BFB1FA81F701FA07F6B0FA5B
:1003D00080F700FA07F6C7F120071EBF20FA07FCD6
:1003E00046EA0C062037B6FBF4FCA7EB0507103FE6
:1003F00007F01F0BCBF120060CFA0BFB2CFA06F6CC
:1004000044BFB3460026202FA4BF5E464FF0000B2A
:100410005BEA060C08BF4FF0010B19EB0B09ABFBB5
:10042000027C48EB0608C01B06FB02CC0BFB03CC8E
:1004300071EB0C01C1E70B46024641464846BDE858
:10044000F08B13B54FF000004FF00001AFF30080C8
:10045000BDE81C407047032A40F2308010F0030CC6
:1004600000F0158011F8013BBCF1020F624498BF07
:1004700011F801CB00F8013B38BF11F8013BA2F1A4
:10048000040298BF00F801CB38BF00F8013B11F01F
:10049000030300F02580083AC0F0088051F8043BBF
:1004A000083A51F804CBA0E80810F5E7121D5CBF2C
:1004B00051F8043B40F8043BAFF30080D20724BF5F
:1004C00011F8013B11F801CB48BF11F8012B24BFF3
:1004D00000F8013B00F801CB48BF00F8012B704742
:1004E00010B5203AC0F00B80B1E81850203AA0E8CF
:1004F0001850B1E81850A0E81850BFF4F5AF5FEA03
:10050000027C24BFB1E81850A0E8185044BF18C9B5
:1005100018C0BDE810405FEA827C24BF51F8043B5C
:1005200040F8043B08BF7047D20728BF31F8023BB0
:1005300048BF11F8012B28BF20F8023B48BF00F844
:10054000012B704702F0FF0343EA032242EA024212
:1005500000F002B84FF000020429C0F0128010F041
:10056000030C00F01B80CCF1040CBCF1020F18BF8F
:1005700000F8012BA8BF20F8022BA1EB0C0100F022
:100580000DB85FEAC17C24BF00F8012B00F8012BF5
:1005900048BF00F8012B70474FF0000200B513462A
:1005A00094469646203922BFA0E80C50A0E80C5093
:1005B000B1F12001BFF4F7AF090728BFA0E80C5044
:1005C00048BF0CC05DF804EB890028BF40F8042B3D
:1005D00008BF704748BF20F8022B11F0804F18BFAA
:1005E00000F8012B7047704770477047004870470C
:1005F000148900201FB584B000200A9C06AB04AA11
:1006000002A90094AFF3008018B1DDE9020108B03F
:1006100010BD0348204000F039F800200146F6E7FD
:100620000000207C70477546FFF7E0FFAE460500EE
:100630006946534620F00700854618B020B5FFF7FD
:1006400081FEBDE820404FF000064FF000074FF05C
:1006500000084FF0000B21F00701AC46ACE8C009E0
:10066000ACE8C009ACE8C009ACE8C0098D467047E9
:1006700010B50446AFF300802046BDE81040FFF7F8
:10068000ECBD002801D000F009B8704710B500F0AB
:1006900025F8BDE81040FFF7F4BF0000014918201D
:1006A000ABBEFEE72600020070B505460C460A20E8
:1006B00000E06D1C00F068F835B128780028F8D10A
:1006C00002E0641C00F060F814B120780028F8D132
:1006D000BDE870400A2000F057B8000010B50228AD
:1006E00003D0410103D50DA112E0002010BD01018E
:1006F00001D50FA10CE0C10001D511A108E08100D6
:1007000001D512A104E0400001D513A100E00021B1
:1007100015A0FFF7C9FF012010BD0000496E7661EA
:100720006C6964204F7065726174696F6E000000BF
:10073000446976696465204279205A65726F0000C9
:100740004F766572666C6F7700000000556E6465C9
:1007500072666C6F77000000496E65786163742083
:10076000526573756C7400005349474650453A20F2
:1007700041726974686D657469632065786365703A
:1007800074696F6E3A20000008B569468DF8000064
:100790000320ABBE08BD000055494A6822F4403230
:1007A0004A604A6843681A434A600268526822F401
:1007B000807203685A6002685368026943EA022241
:1007C00003685A600268526822F0407203685A60F7
:1007D0000268526883681A4303685A600268926824
:1007E00022F4006203689A6002689268C3681A4340
:1007F00003689A603F4B826A9A4218D002689268F6
:1008000022F0706203689A6002689268836A1A43F1
:1008100003689A600268926822F0405203689A6006
:1008200002689268C36A1A4303689A600BE0026820
:10083000926822F0706203689A600268926822F0FF
:10084000405203689A600268926822F002020368CC
:100850009A6002689368027E43EA420203689A60E3
:100860002022125CA2B10268526842F4006203685E
:100870005A600268526822F4604203685A60026853
:100880005368426A521E43EA423203685A6005E0E6
:100890000268526822F4006203685A600268D26AF1
:1008A00022F470020368DA620268D36A828B521EF5
:1008B00043EA02520368DA620268926822F4007224
:1008C00003689A600268936890F8302043EA4222F5
:1008D00003689A600268926822F4806203689A60F2
:1008E00002689368426943EA822203689A6070470B
:1008F000002301400100000F00BFFEE710B50248D1
:1009000000F0DDFD10BD0000A802002010B5024877
:1009100000F0D5FD10BD0000D0020020F8B507465C
:100920000C4615461E464FF400700D490860002025
:100930008860C86008200861380A0A4908704F704A
:10094000200A8870CC70280A08714D71300A8871AD
:10095000CE716B460A460249034800F0B4FBF8BD6D
:100960002C78002030010020A80200201B4840689D
:1009700000F0006080B31A48406B00681949884253
:1009800005D94FF0006017494C3908601CE0144845
:10099000406B00681149B831884205D94FF00060BA
:1009A0001049503908600FE00D48406B00680B4952
:1009B0005831884204D94FF000600849C86003E00C
:1009C0004FF000600549886005480068006840F401
:1009D0000070034909680860704700000060024029
:1009E000F40900205864024010B5024801F0CEF826
:1009F00010BD00009C0F002010B52C48006800F4CA
:100A00000010002850D04FF0F460284908310860E9
:100A10002748007800F0020078B12548007820F0DF
:100A20000200234908700846007840F0040008706E
:100A3000012211461F4801F0A9FB1F48007800F071
:100A4000020078B11C48007820F002001A490870B2
:100A50000846007840F00400087001221021174871
:100A600001F094FB1648007800F0020078B11448B9
:100A7000007820F00200124908700846007840F023
:100A800004000870012210210C4801F07FFB08F0DF
:100A900079F90748007800F0040028B10948006897
:100AA00040F001000749086010BD000000640240EA
:100AB0009501002000040240960100200000024041
:100AC00097010020103C014010B5024801F05EF88B
:100AD00010BD0000FC0F002010B5024801F056F8D0
:100AE00010BD0000DC0E00200146087810381823E5
:100AF000B0FBF3F20848805CC865032A05D9086892
:100B00006FF30900001D886503E008686FF30900B2
:100B10008865886D7047000064C3000801460020A6
:100B20008A6A8B69CBB932B1012A0DD0022A03D06F
:100B3000032A10D10EE000BFCB6A03F08073B3F13B
:100B4000807F00D1012007E0CB6AB3F1C07F00D1E4
:100B5000012001E000E000BF34E08B69B3F5005FE5
:100B60001AD132B1012A07D0022A03D0032A11D1A7
:100B70000AE000BF01200EE0CB6A03F08073B3F1FE
:100B8000807F00D1012006E0CB6AB3F1C07F00D1A5
:100B9000012000E000BF15E032B1012A05D0022A91
:100BA00004D0032A0CD103E000BF00BF012008E0FD
:100BB000CB6A03F08073B3F1807F00D1012000E0A5
:100BC00000BF00BF7047704710B5012001F0D0F999
:100BD00010BD10B5082001F0CBF910BD10B51020E4
:100BE00001F0C6F910BD10B5202001F0C1F910BD0B
:100BF0007047000038B502460020009000BF92F810
:100C00003C00012801D1022038BD012082F83C00BF
:100C100000BF0868092816D91068C0680C780A3C1B
:100C200004EB44050724AC40A0431468E0600C7852
:100C30000A3C04EB44048868A0401468E46820433C
:100C40001468E06013E0106800690C7804EB440558
:100C50000724AC40A043146820610C7804EB4404E2
:100C60008868A0401468246920431468206148689B
:100C7000072817D21068406B0C79641E04EB8405BA
:100C80001F24AC40A04314686063088880B20C79CC
:100C9000641E04EB8404A0401468646B2043146851
:100CA000606331E048680D2817D21068006B0C793A
:100CB000E41F04EB84051F24AC40A04314682063A8
:100CC000088880B20C79E41F04EB8404A040146807
:100CD000246B20431468206316E01068C06A0C7906
:100CE0000D3C04EB84051F24AC40A0431468E06273
:100CF000088880B20C790D3C04EB8404A040146891
:100D0000E46A20431468E062194B1A4C1068A04250
:100D100006D10868122803D1586840F48000586052
:100D2000144C1068A0421CD10868102802D0086832
:100D3000112816D1586840F400005860086810283F
:100D40000FD10D4800680D4CB0FBF4F000EB8000B3
:100D50004000009002E00098401E0090009800289B
:100D6000F9D100BF002082F83C0000BF00BF4BE774
:100D700000230140002001404C00002040420F00B1
:100D800001460868C06C704770B5044600250CB970
:100D9000012070BD1549A06A884200D000BF206CB8
:100DA00030B9204600F024F80020606484F83C004C
:100DB000206C00F0100088B9206C20F4885040F0BE
:100DC000020020642046FFF7E7FC00206064206CEE
:100DD00020F0020040F00100206400E0012500BF87
:100DE000002084F83C0000BF2846D2E70100000F35
:100DF00010B586B00446142101A8FFF7CDFB2349A6
:100E0000206888420FD100BF002000902048006871
:100E100040F480701E4908600846006800F4807045
:100E2000009000BF2FE01B49206888422BD100BFF3
:100E3000002000901648006840F480601449086063
:100E40000846006800F48060009000BF00BF00BF4B
:100E5000002000900E481438006840F020000C4933
:100E6000143908600846006800F02000009000BFB8
:100E700000BF08150190032002900020039001A9F3
:100E8000054801F083F806B010BD000000200140C5
:100E900044380240002201400014024070B504466C
:100EA0000D4600262068806800F48060B0F5806FF1
:100EB00011D12068806800F48070B0F5807F0AD17D
:100EC000206C40F02000206400BF002084F83C002B
:100ED00000BF012070BD01F05FF9064612E0681CFA
:100EE00080B125B101F058F9801BA8420AD9206CC5
:100EF00040F00400206400BF002084F83C0000BFE4
:100F00000320E7E72068006800F002000228E6D12D
:100F10006FF0120021680860206C40F400702064BB
:100F20002068806800F04050B8B9207EA8B92068D9
:100F3000C06A00F4700020B12068806800F480600E
:100F400058B9206C20F480702064206C00F480502C
:100F500018B9206C40F0010020640020BAE70000BE
:100F600008B501460020009000BF91F83C00012820
:100F700001D1022008BD012081F83C0000BF0868B3
:100F8000806800F00100A0B90868806840F00100A6
:100F90000B6898603B4800683B4BB0FBF3F000EBFC
:100FA0004000009002E00098401E00900098002849
:100FB000F9D10868806800F0010000285FD0086C53
:100FC00040F20163984340F4807008640868406808
:100FD00000F4806028B1086C20F4005040F4805088
:100FE0000864086C00F48050B0F5805F04D1486C50
:100FF00020F00600486401E00020486400BF0020A3
:1010000081F83C0000BF214A6FF022000B68186095
:10101000506800F01F0018BB1D4B0868984213D0A1
:101020001C4B0868984204D1101D006800F01F0096
:1010300050B1194B0868984221D11448001D00682E
:1010400000F01F0010281AD20868806800F0405095
:1010500028B90868806840F080400B6898600EE00E
:101060000B4B086898420AD10868806800F040502D
:1010700028B90868806840F080400B6898600020BC
:1010800078E700004C00002040420F0000230140A0
:1010900000200140002101400022014010B502461D
:1010A00092F82030012B01D0022B06D11068406944
:1010B000084314686061002010BD506A40F480202D
:1010C00050620120F8E7F0B504460D461E4694F83C
:1010D000207020688368A86800B900E000BF012F75
:1010E00001D0022F7CD103F0806030B903F00060A2
:1010F00018B903F08050002873D0C3F301610229AE
:1011000005D9606A40F4000060620120F0BD012052
:1011100088403060A86860B9B5F800C0E86840EA67
:101120004C5C206800F5C07000EB0110C0F800C0F6
:101130000FE0D5E901C040EACC00D5F80CC040EA88
:101140000C00D4F800C00CF5C07C0CEB011CCCF8F2
:101150000000D5F810C0206800F5C07000EB011049
:10116000C0F804C0287D01280ED1206800F5C070A9
:1011700000EB0110406840F4807C206800F5C070EE
:1011800000EB0110C0F804C0D079000692F806C048
:1011900040EA0C4092F805C040EA0C2C10794CEA69
:1011A000000C206800F5C07000EB0110C0F80CC006
:1011B000D078000692F802C040EA0C4092F801C0D4
:1011C00040EA0C2092F800C040EA0C00D4F800C0BD
:1011D0000CF5C07C0CEB011CCCF80800206801E089
:1011E00016E00FE000F5C07000EB0110006840F061
:1011F000010C206800F5C07000EB0110C0F800C0C1
:10120000002083E7606A40F40010606201207DE7FF
:10121000606A40F480206062012077E7F0B5044600
:101220000A46216894F82050012D01D0022D7ED16C
:10123000424901F50071086840F001000860086843
:1012400020F47C5008600868566A40EA062008606E
:10125000107D00F01F06012000FA06F3C8699843CC
:10126000C861A1F50071D069C8B9D1F80C029843E2
:10127000C1F80C02908880B2968940EA064601F5D2
:101280001070576940F83760108880B2168940EABC
:10129000064601F51070576900EBC7004660D0693B
:1012A000012819D1D1F80C021843C1F80C0290881A
:1012B00080B2168840EA064601F51070576940F87A
:1012C0003760908980B2168940EA064601F51070B1
:1012D000576900EBC7004660906928B9D1F804024D
:1012E0009843C1F8040204E0D1F804021843C1F89D
:1012F0000402106928B9D1F814029843C1F8140205
:1013000004E0D1F814021843C1F81402106A01284D
:1013100004D1D1F81C021843C1F81C02D1F8000214
:1013200020F00100C1F800020020F0BDFFE7606A74
:1013300040F4802060620120F7E700000064004074
:10134000704770B5044694F82050012D01D0022D4D
:101350007CD151B92068C06800F0030080B9606A90
:1013600040F400106062012070BD2068006900F048
:10137000030028B9606A40F4001060620120F3E7BE
:10138000206800F5D87000EB0110006800F0040040
:101390009060906840B9206800F5D87000EB0110AB
:1013A0000068400D106007E0206800F5D87000EB81
:1013B00001100068C0085060206800F5D87000EB8C
:1013C0000110006800F002004008D060206800F5BD
:1013D000D87000EB0110406800F00F001061206829
:1013E00000F5D87000EB0110406800F47F40000A5F
:1013F0009061206800F5D87000EB01104068000C87
:101400005061206800F5D87000EB011080681870FA
:10141000206800F5D87000EB0110806800F47F4070
:10142000000A5870206800F5D87000EB0110806841
:1014300000F47F00000C9870206800F5D87000EB75
:1014400001108068000ED870206800E031E000F5DF
:10145000D87000EB0110C0681871206800F5D870D2
:1014600000EB0110C06800F47F40000A587120684A
:1014700000F5D87000EB0110C06800F47F00000C8C
:101480009871206800F5D87000EB0110C068000E5C
:10149000D87131B92068C06840F020002668F0603B
:1014A00005E02068006940F02000266830610020D7
:1014B0005AE7606A40F480206062012054E72DE919
:1014C000F05F04460025206846692068D0F8049043
:1014D000206887682068D0F80CA02068D0F810B089
:1014E0002068D0F8188006F00100002855D007F0D9
:1014F0000100C0B101202168886007F0020018B126
:10150000204600F010FB0EE007F0040010B145F497
:10151000006508E007F0080010B145F4805502E0CE
:10152000204600F0FFFA07F48070C8B14FF48070D5
:101530002168886007F4007018B1204600F0F5FAC1
:101540000EE007F4806010B145F4005508E007F4A0
:10155000006010B145F4804502E0204600F0E4FA56
:1015600007F48030C8B14FF480302168886007F4F8
:10157000003018B1204600F0DAFA0EE007F48020BF
:1015800010B145F4004508E007F4002010B145F41F
:10159000803502E0204600F0C9FA06F0080038B1B4
:1015A0000AF0100020B145F4007510202168C860D1
:1015B00006F0040040B10AF0080028B108202168B4
:1015C000C860204600F00CFA06F0020038B120682E
:1015D000C06800F0030010B1204600F003FA06F0E6
:1015E000400038B10BF0100020B145F480651020A8
:1015F0002168086106F0200040B10BF0080028B116
:10160000082021680861204600F05AFA06F0100010
:1016100038B12068006900F0030010B1204600F0E6
:1016200050FA06F4003040B109F0100028B1102043
:1016300021684860204600F045FA06F4803040B149
:1016400009F0080028B1082021684860204600F011
:101650006FFA06F4004088B309F0040078B306F48A
:10166000807020B108F0010008B145F0010506F4D2
:10167000007020B108F0020008B145F0020506F440
:10168000806020B108F0040008B145F0040506F4BC
:101690000060A0B108F0700088B108F07000402828
:1016A00017D006DC10280BD020280CD0302819D1F8
:1016B0000CE0502810D0602814D110E01DE019E093
:1016C00045F008050FE045F010050CE045F0200559
:1016D00009E045F0400506E045F0800503E045F4EB
:1016E000807500E000BF00BF2068806920F07000B6
:1016F000216888610420216848602DB1606A284310
:1017000060622046FFF71CFEBDE8F09F70B50446FE
:101710000CB9012070BD94F8200010B9204600F0EB
:10172000AFF82068006820F002002168086000F02F
:1017300033FD05460DE000F02FFD401B0A2808D9B7
:10174000606A40F400306062052084F820000120C7
:10175000E0E72068406800F002000028EBD1206834
:10176000006840F001002168086000F015FD0546A2
:101770000DE000F011FD401B0A2808D9606A40F412
:1017800000306062052084F820000120C2E7206854
:10179000406800F001000028EBD0207E012806D12F
:1017A0002068006840F080002168086005E020683B
:1017B000006820F0800021680860607E012806D162
:1017C0002068006840F040002168086005E020685B
:1017D000006820F0400021680860A07E012806D142
:1017E0002068006840F020002168086005E020685B
:1017F000006820F0200021680860E07E012806D102
:101800002068006820F010002168086005E020686A
:10181000006840F0100021680860207F012806D190
:101820002068006840F008002168086005E0206832
:10183000006820F0080021680860607F012806D158
:101840002068006840F004002168086005E0206816
:10185000006820F0040021680860D4E90201084310
:1018600021690843616908436168491E084321688A
:10187000C86100206062012084F82000002049E750
:1018800010B586B00446142101A8FEF785FE4E4926
:101890002068884241D14D480068401C4B4908608F
:1018A0000846006801280FD100BF0020009048487A
:1018B000006840F00070464908600846006800F083
:1018C0000070009000BF00BF00BF002000904048A3
:1018D0001038006840F008003D491039086008469B
:1018E000006800F00800009000BF00BF03200190D6
:1018F000022002900020039003200490092005900C
:1019000001A9344800F042FB00220621142000F017
:10191000B3FE142000F0A0FE54E02F492068884256
:1019200050D100BF002000902948006840F080603E
:10193000274908600846006800F08060009000BFFA
:1019400000BF22480068401C204908600846006823
:1019500001280FD100BF002000901D48006840F012
:1019600000701B4908600846006800F00070009095
:1019700000BF00BF00BF002000901548103800686D
:1019800040F002001249103908600846006800F073
:101990000200009000BF00BF602001900220029072
:1019A00000200390032004900920059001A90B4812
:1019B00000F0ECFA00220621402000F05DFE4020FD
:1019C00000F04AFE06B010BD006400400000002098
:1019D00040380240000C0240006800400004024011
:1019E0007047000010B58AB0044601AB03AA00217D
:1019F0002046FFF7A6FC0398A0F20120072857D243
:101A0000DFE800F00405060708090A0000BF00BF70
:101A100000BF00BF00BF00BF0398401E26490870EA
:101A20000846007800EB8000244931F8100000B22D
:101A30002149097801EB8101204A02EB410108812B
:101A40009DF805009DF8041040EA01201A49097824
:101A500001EB810122F811009DF807009DF80610A6
:101A600040EA012000B21449097801EB810102EB40
:101A7000410148809DF809009DF8081040EA0120C6
:101A800000B20D49097801EB810102EB4101888028
:101A90009DF80A000849097801EB810102EB410138
:101AA000887105490978491CC8B206F0CFFF00E0EB
:101AB00000BF00BF0AB010BD38010020CC77002065
:101AC00070477047704770B5044694F820000128AD
:101AD00022D1022084F820002068006820F0010054
:101AE0002168086000F058FB05460DE000F054FB4B
:101AF000401B0A2808D9606A40F400306062052063
:101B000084F82000012070BD2068406800F00100CA
:101B10000028EBD16062F6E7606A40F40020606262
:101B20000120F0E770477047704770477047704773
:101B3000704710B504460CB9012010BD607920B97A
:101B400000202071204600F007F80220607101207B
:101B500060710020F1E7000008B50A4A016891426F
:101B60000FD100BF002100910749096841F480515D
:101B7000054A11601146096801F48051009100BFC7
:101B800000BF08BD0030024030380240F8B50446BE
:101B9000002000908C4800684FF41651B0FBF1F71C
:101BA000A56D2E6894F85C1008208840304098B1EC
:101BB0002068006800F0040070B12068006820F020
:101BC00004002168086094F85C1008208840A86030
:101BD000606D40F00100606594F85C100120884061
:101BE000304068B12068406900F0800040B194F84E
:101BF0005C1001208840A860606D40F002006065C4
:101C000094F85C1004208840304068B12068006877
:101C100000F0020040B194F85C1004208840A860F5
:101C2000606D40F00400606594F85C1010208840FE
:101C3000304078B32068006800F0080050B394F892
:101C40005C1010208840A8602068006800F48020A4
:101C500080B12068006800F4002028B9206CC8B169
:101C60002046216C884715E0A06C98B12046A16CF5
:101C700088470FE02068006800F4807028B9206869
:101C8000006820F0080021680860206C10B1204630
:101C9000216C884794F85C10202088403040002850
:101CA00065D02068006800F0100000285FD094F82C
:101CB0005C1020208840A86094F83500052828D1C1
:101CC0002068006820F016002168086020684069DC
:101CD00020F0800021684861206C08B9A06C28B110
:101CE0002068006820F008002168086094F85C1003
:101CF0003F208840A86000BF002084F8340000BF67
:101D0000012084F83500206D10B12046216D8847F0
:101D1000F8BD2068006800F4802080B12068006869
:101D200000F4002028B9606C10B12046616C88472F
:101D30001DE0E06BD8B12046E16B884717E02068D2
:101D4000006800F4807068B92068006820F0100016
:101D50002168086000BF002084F8340000BF012023
:101D600084F83500E06B10B12046E16B8847606D68
:101D700038B3606D00F00100F0B1052084F8350043
:101D80002068006820F001002168086000BF00980A
:101D9000401C0090B84200D905E02068006800F0BF
:101DA00001000028F3D100BF00BF002084F83400F8
:101DB00000BF012084F83500E06C10B12046E16CD2
:101DC000884700BFA4E700004C0000202DE9F04147
:101DD0000446002500F0E0F9074614B90120BDE8EB
:101DE000F081606A00B100BF00BF002084F83400B9
:101DF00000BF022084F835002068006820F0010050
:101E0000216808600AE000F0C7F9C01B052805D961
:101E100020206065032084F83500E0E72068006832
:101E200000F001000028EED1206805682148054037
:101E3000D4E901010843E168084321690843616965
:101E40000843A1690843E1690843216A084305433F
:101E5000606A042803D1D4E90B01084305432068D4
:101E600005602068456925F00705606A0543606ADA
:101E700004280DD1A06A0543E06A48B12046FEF768
:101E80004DFE28B140206065012084F83500A6E7AA
:101E9000206845612046FEF727FE064694F85C1050
:101EA0003F208840B06000206065012084F8350044
:101EB000002094E73F8010F010B50446102C14D198
:101EC000092006F0C3FD2248007840F001002049B7
:101ED00008702048007840F001001E4908701E4834
:101EE0000078A0B306F04EFF31E0202C0ED1082080
:101EF00006F0ACFD1948007840F001001749087061
:101F00001548007818B306F03DFF20E0082C09D1F1
:101F10000A2006F09BFD1248007840F001001049AD
:101F2000087014E0012C12D108F058FF01280ED0DF
:101F30000C490D48006808F083F90A48006830B180
:101F400020070A490860BFF34F8FBFF36F8F10BDA2
:101F500096010020970100209901002095010020A2
:101F6000980100200C0200207001002004ED00E028
:101F700010B5044604480068204020B102480460BF
:101F80002046FFF799FF10BD143C0140F8B502460A
:101F90000B460025002400200021DCE0012606FA83
:101FA00001F51E6806EA0504AC4273D15E68022E94
:101FB00002D05E68122E13D1CF0802F1200656F827
:101FC00027004E07F70E0F26BE40B0434F07FF0E07
:101FD0001E69BE403043CF0802F1200646F82700B4
:101FE00010684F000326BE40B0431E7906F003067A
:101FF0004F00BE40304310605E68012E08D05E681E
:10200000022E05D05E68112E02D05E68122E13D10A
:1020100090684F000326BE40B0434F00DE68BE40CC
:1020200030439060506801268E40B0431E79C6F35D
:1020300000168E4030435060D0684F000326BE40EB
:10204000B0434F009E68BE403043D0605E6806F0EB
:102050008056B6F1805F7DD100BF00260096404ECD
:10206000366846F480463E4F3E603E46366806F48B
:102070008046009600BF00BF3A4E8F0856F82700F2
:102080008E07370F0F26BE40B043374EB24202D103
:10209000002624E05EE0354EB24201D101261EE06A
:1020A000334EB24201D1022619E0324EB24201D182
:1020B000032614E0304EB24201D104260FE02F4E29
:1020C000B24201D105260AE02D4EB24201D10626C8
:1020D00005E02C4EB24201D1072600E008268F070A
:1020E0003F0FBE4030431F4E8F0846F82700264E54
:1020F0003068A0435E6806F48036B6F5803F00D1B4
:102100002043214E3060361D3068A0435E6806F4DF
:102110000036B6F5003F00D120431B4E361D30601F
:10212000361D3068A0435E6806F48016B6F5801F41
:1021300000D12043144E08363060361D3068A0436D
:102140005E6806F40016B6F5001F00D120430E4E5F
:102150000C363060491C1029FFF420AFF8BD000098
:1021600044380240083801400000024000040240A8
:1021700000080240000C024000100240001402401F
:1021800000180240001C0240003C01400AB181617D
:1021900001E00B048361704701480068704700004C
:1021A0004000002070B504460CB9012070BD94F8C1
:1021B0003D0028B9002084F83C00204600F0CEF80D
:1021C000242084F83D002068006820F00100216888
:1021D000086001F09FF805465C496068884206D8AF
:1021E0005B48854201D2012007E0002005E0594804
:1021F000854201D2012000E00020012800D1D5E76E
:102200005548B5FBF0F62068406820F03F003043A9
:10221000216848604D496068884201D8701C07E019
:102220004FF4967070434FF47A71B0FBF1F0401C9C
:102230002168096A21F03F01084321680862434987
:102240006068884214D8681E61684900B0FBF1F0EC
:10225000401CC0F30B00042801D204203DE0681E9E
:1022600061684900B0FBF1F0401CC0F30B0034E0A2
:10227000A06838B9681E616801EB4101B0FBF1F05C
:10228000401C0AE0681E616801EBC10202EB01110B
:10229000B0FBF1F0401C40F48040C0F30B0008B9E3
:1022A00001201AE0A06848B9681E616801EB41018D
:1022B000B0FBF1F0401CC0F30B000CE0681E61683D
:1022C00001EBC10202EB0111B0FBF1F0401CC0F3C5
:1022D0000B0040F4804040F400402168C9694CF68E
:1022E000FF72914308432168C861D4E9070108439C
:1022F0002168096821F0C001084321680860D4E919
:10230000031008432168896848F2FF32914308436B
:1023100021688860D4E9050108432168C96821F073
:10232000FF0108432168C8602068006840F0010090
:102330002168086000202064202084F83D000020EF
:10234000206384F83E0000BF30E70000A086010053
:1023500080841E0000093D0040420F0010B586B089
:102360000446142101A8FEF717F973492068884232
:1023700030D100BF002000907048006840F002009B
:102380006E4908600846006800F00200009000BF37
:1023900000BF4FF440700190122002900120039082
:1023A000032004900420059001A96548FFF7EEFD85
:1023B00000BF0020009061481030006840F4001019
:1023C0005E49103108600846006800F40010009073
:1023D00000BFAFE05B492068884259D100BF0020B0
:1023E00000905648006840F02000544908600846B4
:1023F000006800F02000009000BF00BF03200190A3
:1024000012200290012003900320049004200590E4
:1024100001A94D48FFF7BAFD00BF002000904748D2
:102420001030006840F480004449103108600846CC
:10243000006800F48000009000BF00BF434844499A
:1024400008604FF060604860402141488160002191
:10245000C1604FF480610161002141618161C1610E
:102460004FF40031016200214162FFF7AFFC08B177
:10247000FEF7BEFB00BF36486063846300BF35488B
:102480000068406840F4006032490968486051E0E3
:102490003149206888424DD100BF00200090274874
:1024A000006840F00400254908600846006800F014
:1024B0000400009000BF00BF00BF0020009008464D
:1024C000006840F0010008600846006800F0010064
:1024D000009000BF00BF481501901220029001201B
:1024E0000390032004900420059001A91B48FFF7E6
:1024F0004DFD4FF480700190122002900120039056
:10250000032004900420059001A91548FFF73EFD23
:1025100000BF0020009009481030006840F400001F
:102520000649103108600846006800F40000009079
:1025300000BF00BF06B010BD00540040303802405C
:10254000000402400058004000140240B8600240FD
:102550009C0A0020F4090020005C004000080240B2
:102560000000024003480068034909780844014913
:1025700008607047400000204800002010B50D485A
:10258000006840F400700B4908600846006840F499
:10259000806008600846006840F48070086003208E
:1025A00000F0A8F80F2000F007F800F02BF800204A
:1025B00010BD0000003C024070B504460E48007893
:1025C0004FF47A71B1FBF0F00C490968B1FBF0F5FA
:1025D000284601F031FB08B1012070BD102C07D254
:1025E00000222146501E00F047F80548046001E033
:1025F0000120F2E70020F0E7480000204C00002016
:102600004400002008B500BF002000901148006879
:1026100040F480400F4908600846006800F480409C
:10262000009000BF00BF00BF00200090081F00689E
:1026300040F08050091F08600846006800F0805094
:10264000009000BF00BF00220F21901E00F014F880
:1026500008BD00004438024001460846002809DB56
:1026600000F01F0301229A4043099B0003F1E0237D
:10267000C3F8002100BF70472DE9F05F80460D468A
:102680001646002705F0C0FA074639462A46334663
:1026900001F00700C0F1070ABAF1040F02D94FF0A8
:1026A000040A01E0C0F1070AD14600F1040ABAF1B8
:1026B000070F02D24FF0000A01E0A0F1030AD4464E
:1026C0004FF0010A0AFA09FAAAF1010A0AEA020A13
:1026D0000AFA0CFA4FF0010B0BFA0CFBABF1010BF1
:1026E0000BEA030B4AEA0B042146404605F094FA34
:1026F000BDE8F09F00BF00F00702064B19684FF6D7
:10270000FF031940044B0B4343EA0221014B1960BC
:1027100000BF70470CED00E00000FA05704710B5EF
:102720000446D4F8040404F0B3F910BD70B50446AF
:102730000D46C5EBC50304F13C0101EB8301CA68FA
:102740002946D4F8040404F0D0F870BD70B50446EE
:102750000D46C5EBC50304F5FE7101EB8301CA68A4
:102760002946D4F8040404F040F970BD10B50446BD
:10277000D4F8040404F08FF910BD70B504460E4679
:1027800006F00F006168884201D9012070BD06F093
:10279000800080280AD106F00F00C0EBC00104F1D0
:1027A0003C0000EB81050120687009E006F00F0095
:1027B000C0EBC00104F5FE7000EB810500206870DD
:1027C0000020A87006F00F00287000BF94F8BC032A
:1027D000012801D10220D9E7012084F8BC0300BF01
:1027E0002946206804F0B0FE00BF002084F8BC0336
:1027F00000BF00BFCAE72DE9F04705460E469046E8
:102800001F464FF0000906F0800080280AD106F02C
:102810000F00C0EBC00105F13C0000EB810401207A
:10282000607009E006F00F00C0EBC00105F5FE7016
:1028300000EB81040020607006F00F002070C4F8E7
:102840000880E770607808B12078E080022F01D11D
:102850000020207100BF95F8BC03012802D102209E
:10286000BDE8F087012085F8BC0300BF2146286839
:1028700004F0BAFC00BF002085F8BC0300BF484646
:10288000EEE72DE9F04104460E461746984606F05D
:102890000F00C0EBC00104F5FE7000EB8105EF6096
:1028A000C5F814800020A861687006F00F00287039
:1028B0002069012800D12F6106F00F0028B9227C81
:1028C0002946206804F01CFD04E0227C294620688B
:1028D00004F0CEFE0020BDE8F08170B504460D4640
:1028E00005F00F006168884201D9012070BD05F034
:1028F000800080280AD105F00F00C0EBC00104F170
:102900003C0000EB81060120707007E0C5EBC501BB
:1029100004F5FE7000EB8106002070700120B0709D
:1029200005F00F00307000BF94F8BC03012801D1FE
:102930000220DBE7012084F8BC0300BF3146206899
:1029400004F049FE05F00F0028B9217C04F57172EE
:10295000206804F0C1FD00BF002084F8BC0300BF64
:1029600000BFC3E72DE9F04104460E4617469846DE
:1029700006F00F00C0EBC00104F13C0000EB810544
:10298000EF60C5F814800020A8610120687006F08F
:102990000F0028702069012800D12F6106F00F0078
:1029A00028B9227C2946206804F0AAFC04E0227C95
:1029B0002946206804F05CFE0020BDE8F0812DE986
:1029C000FE4F044620680290029E206805F01DF824
:1029D00000287DD1206805F057F808B9BDE8FE8FC2
:1029E000206805F051F800F00200022805D12068A7
:1029F000406900F0020021684861206805F044F851
:102A000000F40020B0F5002F58D10025206805F013
:102A10000BF882464FE00AF00100002848D0E9B2E6
:102A2000206805F024F8804608F0010048B1012133
:102A300006F5306000EB451081602946204602F023
:102A400007FD08F00800082809D12946204602F0B1
:102A5000B9FC082106F5306000EB4510816008F0F4
:102A60001000102805D1102106F5306000EB45104C
:102A7000816008F0200020280ED12069012805D1AE
:102A800004F571720121206804F026FD202106F56D
:102A9000306000EB4510816008F40050B0F5005F35
:102AA00006D14FF4005106F5306000EB451081600F
:102AB0006D1C4FEA5A0ABAF1000FACD1206804F03D
:102AC000E3FF00F48020B0F5802F7ED1206800E085
:102AD00012E204F09FFF8246002586E00AF0010022
:102AE00000287FD0E9B2206804F0A8FF804608F0F3
:102AF0000100E8B305F00F0101208840019040F685
:102B000034008159019821EA000040F634018851CF
:102B1000012106F5106000EB451081602069012855
:102B200015D1C5EBC50104F13C0000EB8100C5EBFC
:102B3000C502C16804F13C0000EB820080680144DA
:102B4000C5EBC50204F13C0000EB8200C160E9B2B4
:102B50002046FFF7EBFD2069012810D145B9C5EBF0
:102B6000C50104F13C0000EB8100406900B900E0C0
:102B700005E004F571720121206804F0ADFC08F055
:102B80000800082805D1082106F5106000EB451063
:102B9000816008F01000102805D1102106F51060A2
:102BA00000EB4510816008F04000402805D140212D
:102BB00006F5106000EB4510816008F00200022865
:102BC00008D1022106F5106001E012E00AE000EBF6
:102BD0004510816008F08000802803D129462046F6
:102BE00002F0F6FC6D1C4FEA5A0ABAF1000F7FF4AE
:102BF00075AF206804F048FF00F00040B0F1004FCE
:102C00001CD140F60400805920F0010140F6040078
:102C1000815194F8F403012807D1002084F8F403CB
:102C200000212046FFF77AFD02E0204600F090F9EF
:102C30002068406900F0004021684861206804F085
:102C400023FF00F40060B0F5006F0ED140F60800DD
:102C5000805900F0010010B1204600F0ABF9206867
:102C6000406900F4006021684861206804F00CFFAE
:102C700000F48050B0F5805F72D140F604008059B6
:102C800020F0010140F6040081511021206804F079
:102C900091FE002726E04FF67F3106F5106000EB2D
:102CA0004710816006F5106000EB4710006820F4C3
:102CB000001106F5106000EB471001604FF67F3100
:102CC00006F5306000EB4710816006F5306000EBE0
:102CD0004710006820F4001106F5306000EB471043
:102CE00001607F1C6068B842D5D840F61C0080594E
:102CF00040F0011140F61C008151206B70B1D6F8F4
:102D0000840840F00B01C6F8841840F6440080594E
:102D100040F00B0140F6440081510FE040F61400F2
:102D2000805942F22B01084340F614018851081FD4
:102D3000805940F00B014FF401608151D6F8000832
:102D400020F4FE60C6F80008217C04F5717220684A
:102D500004F0C2FB2068406900F48050216848619B
:102D6000206804F091FE00F40050B0F5005F17D128
:102D7000206804F0A1FA206804F034FEE06000F05E
:102D8000C3FA0090227B2068009904F0A9FE204637
:102D900000F0C6F82068406900F4005021684861DE
:102DA000206804F071FE00F01000102846D1206861
:102DB000806920F01000216888610298D0F8209086
:102DC00009F00F00C0EBC00104F5FE7000EB810BB1
:102DD000C9F3434002281AD147F6F07009EA00000F
:102DE00030B3C9F30A12DBF80C10029804F051FE5C
:102DF000C9F30A11DBF80C000844CBF80C00C9F346
:102E00000A11DBF818000844CBF8180010E0C9F3E9
:102E1000434006280CD1082204F57171029804F091
:102E200038FEC9F30A11DBF818000844CBF8180083
:102E30002068806940F0100021688861206804F0F3
:102E400023FE00F00800082808D1204600F087F88B
:102E50002068406900F0080021684861206804F09B
:102E600013FE00F48010B0F5801F0AD1002529461A
:102E7000204600F043F82068406900F48010216883
:102E80004861206804F000FE00F40010B0F5001F57
:102E90000AD100252946204600F039F8206840690B
:102EA00000F4001021684861206804F0EDFD00F096
:102EB0008040B0F1804F08D12046FFF730FC2068F9
:102EC000406900F0804021684861206804F0DCFD22
:102ED00000F0040004280FD12068D0F8049009F015
:102EE0000400042802D12046FFF740FC2068406817
:102EF00040EA09002168486000BF6FE570B50446EC
:102F00000D462946D4F8040403F0EEFD70BD70B5FB
:102F100004460D462946D4F8040403F0E8FD70BDCC
:102F200070B504460125E06808B9002506E0E068B0
:102F3000022801D1012501E0FDF75AFE2946D4F807
:102F4000040403F04DFED4F8040403F003FE70BD46
:102F500010B50446D4F8040403F02AFE10BD10B5E1
:102F60000446D4F8040403F02AFE10BD70B50446EC
:102F70000D4600BF94F8BC03012801D1022070BDAA
:102F8000012084F8BC0300BF84F83850294620682B
:102F900004F090FD00BF002084F8BC0300BF00BF18
:102FA000EDE710B5044604F57171D4F8040403F09C
:102FB0002EFE10BD10B50446D4F8040403F071FED3
:102FC0002068D0F8000E40F001002168C1F8000E22
:102FD000206A28B10348006840F0060001490860F3
:102FE00010BD000010ED00E0F8B5044600250026F5
:102FF000207800F0010020B9207800F004000428B7
:103000002FD100205B498866FFF7C6F8054606E029
:10301000FFF7C2F8401B022801D90320F8BD56482B
:103020000068C0F3C0600028F2D160688101207A96
:1030300041EA007050498431086001204D4988669A
:10304000FFF7AAF8054606E0FFF7A6F8401B02289E
:1030500001D90320E2E748480068C0F3C0600028B7
:10306000F2D0207800F0020002287DD100BF0020BD
:10307000009041484030006840F080503E49403167
:1030800008600846006800F08050009000BF00BF54
:103090003A48006840F4807038490860FFF77CF8CF
:1030A000054606E0FFF778F8401B022801D9032007
:1030B000B4E73248006800F480700028F2D02E484F
:1030C0007030006800F440764EB3A08900F4407080
:1030D000B04224D028487030006820F440760120A7
:1030E00027490860002008602348703006600068A7
:1030F00000F0010098B1FFF74FF8054608E0FFF730
:103100004BF8401B41F28831884201D9032085E702
:10311000194870300068C0F340000028EFD000BFAD
:10312000A08900F44070B0F5407F0CD112480830FF
:10313000006820F4F810134AE168114008430E4972
:103140000831086007E00C480830006820F4F810E7
:10315000094908310860084870300068A189C1F346
:103160000B010843044900E002E07031086000BF31
:10317000002053E700004742003802400070004042
:10318000400E4742FFFCFF0F70B504460D460CB9D8
:10319000012070BD5848006800F00F00A84209D215
:1031A00055490D700846006800F00F00A84201D094
:1031B0000120EEE7207800F0020002281DD12078DF
:1031C00000F00400042805D14C48006840F4E050A9
:1031D0004A490860207800F00800082805D14748CF
:1031E000006840F46040454908604448006820F0A9
:1031F000F000A168084341490860207800F0010010
:10320000A8B36068012807D13C4808380068C0F3BB
:103210004040B8B90120BCE76068022802D060686D
:10322000032807D1354808380068C0F3406048B922
:103230000120AEE7314808380068C0F3400008B903
:103240000120A6E72D48006820F0030061680843CC
:103250002A490860FEF7A0FF064609E0FEF79CFF3A
:10326000801B41F28831884202D9032091E707E0B0
:103270002248006800F00C006168B0EB810FEDD1CE
:103280001D48006800F00F00A84209D91A490D70C6
:103290000846006800F00F00A84201D0012078E73E
:1032A000207800F00400042807D11448006820F4B6
:1032B000E050E168084311490860207800F00800F8
:1032C000082808D10D48006820F46040216940EAD0
:1032D000C1000A49086000F03DF808490968C1F3D7
:1032E0000311074A515CC840064908600F20FFF7E8
:1032F00063F900204DE70000003C0240083802401E
:103300006CC300084C0000200148006870470000B2
:103310004C00002000B5FFF7F7FF04490968C1F32E
:103320008221034A515CC84000BD000008380240B9
:103330007CC3000800B5FFF7E7FF04490968C1F343
:103340004231034A515CC84000BD000008380240C9
:103350007CC300082DE9F047002400250026A14683
:103360002548006800F00C0020B1042805D008288A
:103370003AD105E0DFF8849039E0DFF8849036E058
:103380001D48001F006800F03F041B48001F006834
:1033900000F4800078B11A481749091F0968C1F381
:1033A0008811A0FB01700146224600233846FCF735
:1033B000DBFF05460EE011480F49091F0968C1F3FC
:1033C0008811A0FB01700146224600233846FCF715
:1033D000CBFF05460848001F0068C0F30140401CB1
:1033E0004600B5FBF6F902E0DFF8109000BF00BF21
:1033F0004846BDE8F0870000083802400024F40089
:10340000001BB700F8B504460CB90120F8BD2078C0
:1034100000F00100002874D0F948006800F00C00AA
:1034200004280DD0F648006800F00C00082813D1DD
:10343000F348001F006800F48000B0F5800F0BD146
:10344000EF4808380068C0F34040002859D0606851
:10345000002856D10120D9E700BF6068B0F5803F51
:1034600008D1E7480838006840F48030E44908395A
:1034700008601EE06068B0F5A02F0DD1E048083864
:10348000006840F48020DE4908390860084600687A
:1034900040F4803008600CE0D9480838006820F417
:1034A0008030D749083908600846006820F4802039
:1034B000086000BF606890B1FEF76EFE054606E04A
:1034C000FEF76AFE401B642801D903209EE7CC4822
:1034D00008380068C0F340400028F1D011E0FEF742
:1034E0005BFE054606E0FEF757FE401B642801D947
:1034F00003208BE7C24808380068C0F3404000282A
:10350000F1D1207800F0020002285FD1BC480068A9
:1035100000F00C0058B1BA48006800F00C00082810
:103520001CD1B748001F006800F48000B0B9B4484F
:1035300008380068C0F3400020B1E068012801D0DD
:10354000012063E7AE480838006820F0F8002169E0
:1035500040EAC100AA490839086037E0E06800B3D2
:103560000120A8490860FEF717FE054606E0FEF7B1
:1035700013FE401B022801D9032047E7A048083862
:103580000068C0F340000028F1D09D48083800686A
:1035900020F0F800216940EAC10099490839086023
:1035A00014E0002097490860FEF7F6FD054606E0A6
:1035B000FEF7F2FD401B022801D9032026E79048C0
:1035C00008380068C0F340000028F1D1207800F0EE
:1035D000080008282CD16069A8B101208A49086038
:1035E000FEF7DAFD054606E0FEF7D6FD401B022891
:1035F00001D903200AE782486C300068C0F340001C
:103600000028F1D014E000207F490860FEF7C4FDD7
:10361000054606E0FEF7C0FD401B022801D9032045
:10362000F4E677486C300068C0F340000028F1D120
:10363000207800F00400042870D10026704838304B
:10364000006800F0805090B900BF002000906C48E6
:103650003830006840F080506949383108600846C9
:10366000006800F08050009000BF00BF012667484E
:10367000006800F48070B0B96448006840F480705D
:1036800062490860FEF788FD054606E0FEF784FD06
:10369000401B022801D90320B8E65C48006800F40A
:1036A00080700028F2D000BFA068012808D15448DB
:1036B0006830006840F001005149683108601DE041
:1036C000A06805280DD14E486830006840F004001D
:1036D0004B49683108600846006840F00100086006
:1036E0000CE047486830006820F001004449683128
:1036F00008600846006820F00400086000BFA06869
:10370000A8B1FEF749FD054609E0FEF745FD401B5F
:1037100041F28831884202D9032077E626E0384812
:1037200068300068C0F340000028EED013E0FEF7D8
:1037300033FD054608E0FEF72FFD401B41F28831BE
:10374000884201D9032061E62D4868300068C0F343
:1037500040000028EFD1012E07D1294838300068F9
:1037600020F0805026493831086000BFA069B8B306
:103770002348006800F00C0008285ED0A0690228E9
:1037800046D100201F490866FEF706FD054606E003
:10379000FEF702FD401B022801D9032036E6184837
:1037A00008380068C0F340600028F1D1D4E907016F
:1037B0000843616A40EA81110122A06AC2EB50000D
:1037C00041EA00412C20005D41EA00600C49091FDC
:1037D000086001200B490866FEF7DEFC054607E09D
:1037E0002DE0FEF7D9FC401B022801D903200DE68D
:1037F000034808380068C0F340600028F1D01EE09C
:103800000838024000004742800E474200700040E6
:1038100000200C490866FEF7BFFC054606E0FEF7EF
:10382000BBFC401B022801D90320EFE506480068D5
:10383000C0F340600028F2D101E00120E6E500205D
:10384000E4E50000000047420038024010B504469D
:103850000CB9012010BD607920B9002020712046EC
:1038600000F00EF8022060712068006840F004004B
:1038700021680860012060710020A06000BFE9E7B6
:1038800008B50A4A016891420FD100BF002100919A
:103890000749096841F04001054A1160114609686D
:1038A00001F04001009100BF00BF08BD00080650B4
:1038B0003438024010B504460CB9012010BD607FB9
:1038C00020B900202077204600F060F802206077C1
:1038D00000BFCA202168486253202168486200BFA7
:1038E000204602F07BF840B100BFFF20216848620B
:1038F00000BF042060770120E0E72068806822494B
:10390000084021688860216960680843616908434C
:10391000216889680843216888602168E068086137
:1039200020680169208941EA004021680861206817
:10393000C06820F080002168C8602068806800F0BE
:10394000200060B9204600F02DF840B100BFFF20F4
:103950002168486200BF042060770120AEE720683C
:10396000006C20F48020216808642068006CA16944
:1039700008432168086400BFFF202168486200BF37
:1039800001206077002099E7BFFF8FFF034A01689D
:10399000914202D10121024A116070470028004083
:1039A0003C0E474270B5044600252068C06820F0F0
:1039B000A0002168C860FEF7EFFB054607E0FEF7B0
:1039C000EBFB401BB0F57A7F01D9032070BD206866
:1039D000C06800F020000028F1D00020F6E710B504
:1039E00004460CB9012010BD606A00B900BF002177
:1039F000A16294F8510028B9002084F850002046B4
:103A000000F034F8022084F851002068006820F0AB
:103A1000400021680860D4E901010843E1680843D7
:103A20002169084361690843218B01F4007108434F
:103A3000E1690843216A0843A16A084321680860D4
:103A40000421A06901EA1040616A084321684860C6
:103A50002068C06920F400602168C86100206065AA
:103A6000012084F851000020BDE7000010B586B0A9
:103A70000446142101A8FCF78FFD6749206888429D
:103A80007ED100BF002000906448006840F4805060
:103A9000624908600846006800F48050009000BF4A
:103AA00000BF00BF002000905C481438006840F060
:103AB00002005A49143908600846006800F0020004
:103AC000009000BF00BF00BF0020009008460068C3
:103AD00040F0010008600846006800F00100009016
:103AE00000BF00BF18200190022002900120039027
:103AF000032004900520059001A94948FEF746FAE5
:103B00008020019002200290012003900320049065
:103B10000520059001A94348FEF738FA4248434979
:103B200008604FF0C0604860002140488160C1607B
:103B30004FF480610161002141618161C1614FF4F5
:103B40004031016200214162FEF740F908B1FDF702
:103B50004FF800BF3548E064846300BF3248183036
:103B6000334908604FF0C0604860402130488160B0
:103B70000021C1604FF4806101610021416100E0DA
:103B800010E08161C1614FF40031016200214162A6
:103B9000FEF71CF908B1FDF72BF800BF2448A0641C
:103BA000846336E023492068884232D100BF002078
:103BB00000901A48001F006840F480401749091F10
:103BC00008600846006800F48040009000BF00BF15
:103BD00000BF0020009011481438006840F0020037
:103BE0000E49143908600846006800F00200009091
:103BF00000BF00BF4FF460400190022002900120FE
:103C00000390032004900520059001A90448FEF7C5
:103C1000BDF906B010BD000000300140443802403C
:103C2000000402400000024040640240DC0B00201F
:103C30003C0C00200038004070B504462546681E44
:103C4000B0F1807F01D301200FE0681E4FF0E0212A
:103C500048610F214FF0FF3003F0DEFF00204FF0EE
:103C6000E021886107200861002070BD10B503467F
:103C7000002200BF93F83C00012801D1022010BDB2
:103C8000012083F83C0000BF22F0FF00CC6840EA2E
:103C9000040222F440708C6840EA040222F480603E
:103CA0004C6840EA040222F400600C6840EA040216
:103CB00022F480500C6940EA040222F400504C695E
:103CC00040EA040222F48040CC6940EA0402186809
:103CD000426400BF002083F83C0000BF00BFCEE775
:103CE00010B5024600BF92F83C00012801D1022025
:103CF00010BD012082F83C0000BF022082F83D0088
:103D0000106843681068846823F0700308680343F0
:103D100024F080044868044310684360106884609D
:103D2000012082F83D0000BF002082F83C0000BF67
:103D300000BFDDE710B504460CB9012010BD94F8B2
:103D40003D0028B9002084F83C00204600F00CF823
:103D5000022084F83D00211D206801F0A5FF01200C
:103D600084F83D000020E9E708B53F4A0168914228
:103D70000FD100BF002100913C49096841F00101C9
:103D80003A4A11601146096801F00101009100BF33
:103D900069E0374A0168914211D100BF00210091CA
:103DA0003249091F096841F00201304A121F1160AF
:103DB0001146096801F00201009100BF53E02D4A4D
:103DC0000168914211D100BF002100912749091FCC
:103DD000096841F00401254A121F11601146096863
:103DE00001F00401009100BF3DE0234A01689142C7
:103DF00011D100BF002100911C49091F096841F041
:103E000008011A4A121F11601146096801F00801E1
:103E1000009100BF27E0194A016891420FD100BF0D
:103E2000002100911149096841F002010F4A116017
:103E30001146096801F00201009100BF13E0104A29
:103E4000016891420FD100BF002100910749096824
:103E500041F40031054A11601146096801F400314E
:103E6000009100BF00BF08BD00000140443802407F
:103E70000004004000080040000C00400004014025
:103E8000004401400146022081F83D000868806836
:103E900000F00702062A05D00868006840F001001B
:103EA0000B681860012081F83D00002070472DE963
:103EB000F04104460D4600BF94F83C00012802D1B1
:103EC0000220BDE8F081012084F83C0000BF022000
:103ED00084F83D002068866826F0770626F47F4641
:103EE000206886602868502833D00CDC202850D009
:103EF00004DC00284BD0102851D149E0302849D0AB
:103F000040284CD139E060282DD0702807D0B0F57A
:103F1000805F03D0B0F5005F41D10DE040E0D5E90E
:103F200002136A68206801F03CFF2068866846F04A
:103F300077062068866033E0D5E902136A68206856
:103F400001F02FFF2068806840F48040216888607D
:103F500026E0EA686968206802F014F850212068B9
:103F600001F02AFF1CE0EA686968206802F01DF889
:103F70006021206801F020FF12E0EA68696820688B
:103F800002F000F84021206801F016FF08E000BFB1
:103F900000BF00BF2968206801F00EFF00E000BFED
:103FA00000BF012084F83D0000BF002084F83C00E1
:103FB00000BF00BF85E7000010B586B0044614219D
:103FC00001A8FCF7E9FA99492068884232D100BF7C
:103FD000002000909648006840F010009449086066
:103FE0000846006800F01000009000BF00BF4FF4CA
:103FF000D4400190022002900120039002200490FE
:104000000120059001A98B48FDF7C0FF8A48FFF702
:1040100039FF0021884800F0CFF90421864800F0DC
:10402000CBF90821844800F0C7F90C21824800F040
:10403000C3F9F9E081492068884224D100BF0020FB
:1040400000907B48006840F0040079490860084609
:10405000006800F00400009000BF00BF88150190C8
:10406000022002900120039002200490059001A9F3
:104070007348FDF78BFF7348FFF704FF0821714871
:1040800000F09AF9D0E070492068884226D100BF3C
:10409000002000906648006840F00800644908600D
:1040A0000846006800F00800009000BF00BF4FF411
:1040B0008040019002200290012003900320049090
:1040C0000220059001A96148FDF760FF6048FFF7F5
:1040D000D9FE08215E4800F06FF9A5E05D4920682F
:1040E00088422DD100BF002000905148006840F068
:1040F00080004F4908600846006800F0800000908A
:1041000000BF00BF4FF4E050019002200290012058
:10411000039002200490059001A94F48FDF736FF57
:104120004E48FFF7AFFE00214C4800F045F904214E
:104130004A4800F041F90821484800F03DF973E091
:1041400047492068884246D100BF00200090384887
:10415000006840F48070364908600846006800F442
:104160008070009000BF00BF00BF00200090084694
:10417000006840F0040008600846006800F0040091
:10418000009000BF00BF402001900220029001205B
:104190000390022004900320059001A93148FDF707
:1041A000F5FE4020019002200290012003900220A1
:1041B00004900320059001A92148FDF7E7FE2A4855
:1041C000FFF760FE0021284800F0F6F80421264899
:1041D00000F0F2F828E025492068884224D100BF89
:1041E000002000901248006840F02000104908604C
:1041F0000846006800F02000009000BF00BF40208B
:1042000001900220029001200390022004900320DC
:10421000059001A91648FDF7B9FE1648FFF732FED2
:104220000021144800F0C8F806B010BD000001409D
:1042300030380240001002409C0C00200004004076
:1042400000080240DC0C002000080040000C024086
:104250001C0D0020000C0040001C02405C0D0020E2
:1042600000040140002002409C0D00200044014059
:1042700000140240DC0D002070B504460D461646C1
:1042800000BF94F83C00012801D1022070BD01203C
:1042900084F83C0000BF022084F83D0036B1042EB3
:1042A0001BD0082E31D00C2E5ED145E02946206867
:1042B00001F08CFD2068806940F008002168886169
:1042C0002068806920F00400216888612068806986
:1042D000296908432168886147E02946206801F080
:1042E000ADFD2068806940F4006021688861206825
:1042F000806920F48060216888612068806929696C
:1043000040EA0120216888612FE02946206801F0F9
:10431000D3FD2068C06940F008002168C8612068AA
:10432000C06920F004002168C8612068C06929695B
:1043300008432168C86118E02946206801F0F8FDAB
:104340002068C06940F400602168C8612068C069C5
:1043500020F480602168C8612068C069296940EA4A
:1043600001202168C86100E000BF00BF012084F87F
:104370003D0000BF002084F83C0000BF00BF85E77F
:1043800010B504460CB9012010BD94F83D0028B9C1
:10439000002084F83C00204600F00CF8022084F84D
:1043A0003D00211D206801F07FFC012084F83D00C4
:1043B0000020E9E77047000070B504460E46012270
:1043C0003146206801F0DCFC0F492068884203D0A8
:1043D0000E492068884201D1012000E0002028B168
:1043E0002068406C40F40040216848642068806880
:1043F00000F00705062D05D02068006840F0010098
:1044000021680860002070BD0000014000040140E8
:1044100010B504460CB9012010BDA06900B100E040
:1044200000BF94F8390028B9002084F838002046ED
:1044300000F028F8242084F839002068C06820F4AF
:1044400000502168C860204601F0C4FD2068006962
:1044500020F49040216808612068406920F02A001B
:10446000216848612068C06840F400502168C86035
:104470000020E063202084F8390084F83A0000200E
:10448000CAE7000010B586B00446142101A8FCF765
:1044900083F8AA49206888426ED100BF00200090AE
:1044A000A748006840F01000A54908600846006869
:1044B00000F01000009000BF00BF00BF002000907F
:1044C0009F481438006840F002009D491439086084
:1044D0000846006800F00200009000BF00BF00BF67
:1044E000002000900846006840F00100086008467F
:1044F000006800F00100009000BF00BF8020019024
:1045000002200290012003900320049007200590D0
:1045100001A98C48FDF73AFD4FF40070019002208C
:10452000029001200390032004900720059001A928
:104530008548FDF72BFD8548854908604FF00060F0
:1045400048604021824881600021C1604FF4806151
:104550000161002141618161C1614FF480310162DB
:1045600000214162FDF732FC08B1FCF741FB00BFBE
:10457000774820638463DEE07649206888425BD117
:1045800000BF002000906E48001F006840F48020AB
:104590006B49091F08600846006800F480200090FD
:1045A00000BF00BF00BF00200090654814380068BD
:1045B00040F004006249143908600846006800F0C1
:1045C0000400009000BF00BF4FF440600190022043
:1045D000029001200390032004900720059001A978
:1045E0005D48FDF7D3FC5D485D4908604FF0006011
:1045F000486000215A488160C1604FF480610161C8
:10460000002141618161C1614FF4003101620021EB
:104610004162FDF7DBFB08B1FCF7EAFA00BF504846
:104620006063846300BF002204212720FEF724F882
:104630002720FEF711F87EE04A49206888427AD1A7
:1046400000BF002000903E48006840F020003C4938
:1046500008600846006800F02000009000BF00BF1E
:1046600000BF0020009036481438006840F0400039
:104670003349143908600846006800F04000009093
:1046800000BF00BF4FF4844001900220029001203F
:104690000390032004900820059001A93248FDF7FB
:1046A00075FC2A489038314908608005486000212F
:1046B0002E488160C1604FF4806101610021416139
:1046C0008161C1614FF40031016200214162FDF757
:1046D0007DFB08B1FCF78CFA00BF2448606384635B
:1046E00000BF1A481838224908604FF0206048601F
:1046F00040211F4881600021C1604FF48061016149
:10470000002141618161C1614FF48031016200216A
:104710004162FDF75BFB08B1FCF76AFA00BF144881
:104720002063846300BF002205214720FDF7A4FF1A
:104730004720FDF791FF06B010BD000000100140BA
:10474000443802400004024000000240B8640240C5
:10475000DC0E0020004800400008024028600240B3
:104760003C0F002000140140001802409C0F002064
:10477000FC0F002000BFFEE770B504460D4616464C
:10478000308888B9184890ED000A184880ED000A72
:10479000154890ED010A154880ED010A124890ED88
:1047A000020A124880ED020A324611490F4804F00D
:1047B000BFFA0E4890ED000A85ED000A90ED010A5F
:1047C00085ED010A90ED020A85ED020AB7EE000AB6
:1047D00084ED000AB7EE000A84ED010AB7EE000A84
:1047E00084ED020A70BD0000B07E0020A47E00208F
:1047F000687F002091ED000A0E4A82ED000A91EDDB
:10480000010A82ED010A91ED020A82ED020A92ED9F
:10481000000A094A82ED000A064A92ED010A064A98
:1048200082ED010A034A92ED020A034A82ED020A6E
:1048300070470000B07E0020A47E00201FB500203D
:1048400000900190029003901548164908604FF4BB
:10485000003048600021134881600161017680F8D2
:104860002010C162104981620021C1600121C16133
:10487000002180F8301001214161FCF785FA08B170
:10488000FCF7B6F910200090012001900020029062
:1048900069460448FCF7AEF908B1FCF7A9F91FBD59
:1048A00000200140180200200100000F1FB5002069
:1048B00000900190029003901548164908604FF44B
:1048C000003048600021134881600161017680F862
:1048D0002010C162104981620021C1600121C161C3
:1048E000002180F8301001214161FCF74DFA08B138
:1048F000FCF77EF908200090012001900020029032
:1049000069460448FCF776F908B1FCF771F91FBD58
:1049100000220140600200200100000F10B50E4887
:104920000E4908600320486000210C488160C16086
:104930004FF4102101614FF4001141610021017613
:1049400041768176C17601774177FCF7DFFE08B1C9
:10495000FCF74EF910BD000000640040A8020020E2
:1049600010B50E480E4908600320486000210C482D
:104970008160C1604FF4102101614FF40011416169
:104980000021017641768176C17601774177FCF787
:10499000BDFE08B1FCF72CF910BD00000068004016
:1049A000D002002010B50548054908600846FDF70B
:1049B000C0F808B1FCF71CF910BD0000003002403F
:1049C0000400002008B500BF002000902A480068BD
:1049D00040F48000284908600846006800F4800020
:1049E000009000BF00BF00BF002000900846006894
:1049F00040F4001008600846006800F400100090C1
:104A000000BF00BF002205210C20FDF735FE0C2061
:104A1000FDF722FE002205212F20FDF72DFE2F207D
:104A2000FDF71AFE002205213920FDF725FE392069
:104A3000FDF712FE002205213A20FDF71DFE3A2067
:104A4000FDF70AFE002205213B20FDF715FE3B2065
:104A5000FDF702FE002205214520FDF70DFE452051
:104A6000FDF7FAFD002205214620FDF705FE462050
:104A7000FDF7F2FD08BD00003038024000B587B0F8
:104A80001C2206496846FBF72BFD0021684604F00E
:104A9000CEFA0349086007B000BD000048C3000813
:104AA0003800002000B587B0142102A8FBF774FD80
:104AB00000BF002001908948006840F0020087494B
:104AC00008600846006800F00200019000BF00BFC7
:104AD00000BF002001900846006840F040000860D8
:104AE0000846006800F04000019000BF00BF00BF12
:104AF000002001900846006840F001000860084668
:104B0000006800F00100019000BF00BF00BF00205E
:104B100001900846006840F00800086008460068F8
:104B200000F00800019000BF00BF00BF002001900E
:104B30000846006840F0040008600846006800F07D
:104B40000400019000BF00BF00BF00200190084694
:104B5000006840F4807008600846006800F48070C7
:104B6000019000BF00BF00BF002001900846006810
:104B700040F0200008600846006800F02000019026
:104B800000BF00BF00BF002001900846006840F051
:104B9000800008600846006800F08000019000BFB7
:104BA00000BF00BF002001900846006840F01000E0
:104BB00008600846006800F01000019000BF00BFC8
:104BC000012240214648FDF7E1FA01221021454823
:104BD000FDF7DCFA012241F201014348FDF7D6FA64
:104BE00080200290002003900120049002A93F48F9
:104BF000FDF7CCF94020029001200390049005902D
:104C000002A93748FDF7C2F90920029038480390FD
:104C10000120049002A93248FDF7B8F9072002905C
:104C200000200390049002A93248FDF7AFF901205B
:104C30000290002003900120049002A92948FDF76A
:104C4000A5F9102002900120039004900220059005
:104C500002A92448FDF79AF93020029024480390D5
:104C60000120049002A92348FDF790F94FF48050E9
:104C70000290012003900490059002A91A48FDF7C4
:104C800085F901200290039004900220059002A96A
:104C90001548FDF77BF9002206210846FDF7ECFCDC
:104CA0000620FDF7D9FC002205210920FDF7E4FCD0
:104CB0000920FDF7D1FC002205210A20FDF7DCFCCC
:104CC0000A20FDF7C9FC002205211720FDF7D4FCBE
:104CD0001720FDF7C1FC07B000BD000030380240CE
:104CE0000018024000000240000402400020024080
:104CF000000021100008024010B50B480B49086065
:104D00000B484860002109488160C1604FF4804130
:104D10000161002141618161C1610162FDF742FAD7
:104D200008B1FBF765FF10BD00540040A00900204A
:104D3000801A060010B50B480B4908600B48486004
:104D4000002109488160C1604FF480410161002168
:104D500041618161C1610162FDF724FA08B1FBF78D
:104D600047FF10BD00580040F4090020801A0600DB
:104D700010B50B480B4908600B48486000210948F2
:104D80008160C1604FF48041016100214161816116
:104D9000C1610162FDF706FA08B1FBF729FF10BDFA
:104DA000005C0040480A0020801A060010B5054843
:104DB000054908600846FEF749FD08B1FBF718FFF2
:104DC00010BD000000080650FC0A002010B50A487B
:104DD0000A490860002048607C210848816040F64C
:104DE0007F41C1600021016141618161FEF762FD87
:104DF00008B1FBF7FDFE10BD002800400C0B0020A1
:104E000010B50F480F4908604FF4827048600021C8
:104E10000C488160C16002210161012141614902A8
:104E200081613821C16100210162416281620A21F0
:104E3000C162FEF7D4FD08B1FBF7DAFE10BD000039
:104E4000003001402C0B002010B50F480F490860BE
:104E50004FF48270486000210C488160C1600221DB
:104E6000016101214161490281613821C161002153
:104E70000162416281620A21C162FEF7B0FD08B1A0
:104E8000FBF7B6FE10BD000000380040840B002088
:104E900000B587B01C216846FBF77EFB1548164914
:104EA00008600020486000211348816041F287318A
:104EB000C160002101618161FEF73CFF08B1FBF791
:104EC00097FE0D48FFF75CFA08B1FBF791FE6020F2
:104ED000009000200190029004900022694606484C
:104EE000FFF7CAF908B1FBF783FE0348FFF764F840
:104EF00007B000BD00440140DC0D002000B595B0B6
:104F0000002011901290139014900F9010901C217B
:104F100008A8FBF741FB20216846FBF73DFB38481A
:104F200038490860A720486000213648816044F66F
:104F30001F61C1600021016141618161FEF7FAFEDC
:104F400008B1FBF755FE4FF48050119011A92D4880
:104F5000FEF7ADFF08B1FBF74BFE2A48FFF710FA4A
:104F600008B1FBF745FE00200F9010900FA92548CF
:104F7000FEF7B6FE08B1FBF73BFE602008904FF449
:104F80007A70099000200A900B900C900D900E9072
:104F9000002208A91B48FFF76FF908B1FBF728FEAC
:104FA000042208A91748FFF767F908B1FBF720FEAC
:104FB000082208A91348FFF75FF908B1FBF718FEAC
:104FC0000C2208A90F48FFF757F908B1FBF710FEAC
:104FD0000020009001900290039004904FF4005044
:104FE00005900020079069460648FEF73FFE08B18D
:104FF000FBF7FEFD0348FEF7DFFF15B000BD000024
:10500000000001409C0C002000B58DB000200990EC
:105010000A900B900C90079008901C216846FBF7B3
:10502000BBFA2048204908600020486000211E4843
:10503000816042F2CF01C160002101618161FEF710
:1050400079FE08B1FBF7D4FD4FF48050099009A90F
:105050001548FEF72CFF08B1FBF7CAFD1248FFF711
:105060008FF908B1FBF7C4FD00200790089007A94D
:105070000D48FEF735FE08B1FBF7BAFD6020009041
:105080000020019002900490082269460648FFF72C
:10509000F3F808B1FBF7ACFD0348FEF78DFF0DB048
:1050A00000BD000000040040DC0C002000B58DB005
:1050B000002009900A900B900C90079008901C21FA
:1050C0006846FBF769FA204820490860A720486035
:1050D00000211E4881604FF6FF71C160002101610F
:1050E0008161FEF727FE08B1FBF782FD4FF4805087
:1050F000099009A91548FEF7DAFE08B1FBF778FD1B
:105100001248FFF73DF908B1FBF772FD0020079048
:10511000089007A90D48FEF7E3FD08B1FBF768FD0D
:1051200060200090002001900290049008226946BF
:105130000648FFF7A1F808B1FBF75AFD0348FEF750
:105140003BFF0DB000BD0000000800401C0D00201A
:1051500000B58DB0002009900A900B900C9007903C
:1051600008901C216846FBF717FA28482849086070
:10517000002048600021264881604FF6FF71C16021
:10518000002101618161FEF7D5FD08B1FBF730FD1B
:105190004FF48050099009A91D48FEF788FE08B118
:1051A000FBF726FD1A48FFF7EBF808B1FBF720FDE7
:1051B00000200790089007A91548FEF791FD08B157
:1051C000FBF716FD602000900020019002900490F3
:1051D000002269460E48FFF74FF808B1FBF708FDBB
:1051E000042269460A48FFF747F808B1FBF700FDBB
:1051F000082269460648FFF73FF808B1FBF7F8FCBC
:105200000348FEF7D9FE0DB000BD0000000C0040C1
:105210005C0D002000B595B0002011901290139005
:1052200014900F9010901C2108A8FBF7B5F92021CD
:105230006846FBF7B1F9304830490860A72048605C
:1052400000212E48816044F61F61C1600021016188
:1052500041618161FEF76EFD08B1FBF7C9FC4FF4B7
:105260008050119011A92548FEF721FE08B1FBF7E7
:10527000BFFC2248FFF784F808B1FBF7B9FC002017
:105280000F9010900FA91D48FEF72AFD08B1FBF7FB
:10529000AFFC602008904FF47A70099000200A90CB
:1052A0000B900C900D900E90002208A91348FEF769
:1052B000E3FF08B1FBF79CFC042208A90F48FEF7A6
:1052C000DBFF08B1FBF794FC0020009001900290F6
:1052D000039004904FF40050059000200790694619
:1052E0000648FEF7C3FC08B1FBF782FC0348FEF753
:1052F00063FE15B000BD0000000401409C0D0020BD
:1053000010B50B480B4908604FF4E13048600021AC
:1053100008488160C16001610C2141610021816107
:10532000C161FFF775F808B1FBF762FC10BD000022
:10533000001001401C0E002010B50B480B490860FE
:105340000B484860002109488160C1604FF48061CA
:1053500001610C21416100218161C161FFF758F8B1
:1053600008B1FBF745FC10BD004800405C0E002072
:10537000A086010010B50B480B4908604FF4E130DE
:105380004860002108488160C16001610C214161D1
:1053900000218161C161FFF73BF808B1FBF728FCF0
:1053A00010BD0000001401409C0E002000BFFEE76D
:1053B0007047000010B50248FDF701FB10BD00006A
:1053C0005C1000202DE9F04705460C462F683E464C
:1053D000D7F8408006F5306000EB4410D0F8089014
:1053E000286901280FD1184880451BD909F40040CD
:1053F000B0F5004F16D14FF4004106F5306000EBD8
:10540000441081600EE0114880450BD109F4004042
:10541000B0F5004F06D14FF4004106F5306000EBC7
:10542000441081602846FDF7BCFD0748804508D937
:105430002869012805D105F571720121286802F05B
:105440004BF80020BDE8F0870A30544F0A31544F22
:105450002DE9F04705460C46D5F800804646D8F8B9
:10546000409006F5306000EB4410876828690128F9
:105470007ED107F0080008281ED1534881450BD97A
:1054800007F40040B0F5004F06D14FF4004106F597
:10549000306000EB441081602846FDF782FD05F581
:1054A00071720121286802F017F8082106F53060B2
:1054B00000EB4410816083E007F02000202806D133
:1054C000202106F5306000EB4410816078E007F0A1
:1054D0002800002874D13C4881450CD907F40040CD
:1054E000B0F5004F07D14FF4004106F5306000EBF6
:1054F0004410816064E0C4EBC40105F5FE7000EB6C
:105500008100816806F5306000EB44100069C0F34B
:105510001200091AC4EBC40205F5FE7000EB82000C
:105520008161C4EBC40105F5FE7000EB8100C4EBA2
:10553000C402C16805F5FE7000EB8200806801447A
:10554000C4EBC40205F5FE7000EB8200C160E1B25D
:105550002846FDF7FBF8FCB9C4EBC40105F5FE7065
:1055600000EB81004069B8B905F57172012100E0D6
:1055700003E0286801F0B0FF22E0144881451BD108
:1055800007F40040B0F5004F07D14FF4004106F595
:10559000306000EB4410816012E007F0200020280A
:1055A00005D1202106F5306000EB44108160E1B2A6
:1055B0002846FDF7CBF803E0E1B22846FDF7C6F830
:1055C0000020BDE8F08700000A30544F0A31544FE4
:1055D0002DE9F84F07460E46D7F80090C846C6EBAF
:1055E000C60107F13C0000EB8104D4E905108842B4
:1055F00002D90120BDE8F88FD4E90501451AA06859
:10560000A84200D2A568E81C4FEA900A17E0D4E946
:105610000501451AA068A84200D2A568E81C4FEA17
:10562000900A387CABB2F2B200904846E16802F0D2
:10563000CBFAE0682844E060A0692844A06108F53E
:10564000106000EB4610806980B2504506D3D4E963
:105650000510884202D260690028D8D1D4E905013A
:1056600088420ED806F00F01012000FA01FB40F637
:10567000340050F8080020EA0B0040F6340141F8ED
:1056800008000020B6E70000B0EE401A10B99FED08
:10569000790A704790ED100A80ED110A90ED0F0A1B
:1056A00080ED100AC0ED060A80ED071A30EEC10A3F
:1056B00080ED0F0A0178002975D190ED010AD0ED37
:1056C0000F1A20EE210A80ED090A90ED0A0AD0EDAA
:1056D000021A90ED0F2A01EE820A80ED0A0A90ED7F
:1056E0000D0A80ED0E0A90ED0C0A80ED0D0A90ED8A
:1056F0000F0AD0ED101A30EE610A80ED0C0A90ED21
:10570000030AD0ED0C1A20EE210A80ED0B0A90ED71
:105710000A0AD0ED051AB4EEE10AF1EE10FA04DD42
:1057200090ED050A80ED0A0A10E090ED0A0AD0ED2E
:10573000051AF1EE611AB4EEE10AF1EE10FA05D2A3
:1057400090ED050AB1EE400A80ED0A0A90ED090AD3
:10575000D0ED0A1A30EE210AD0ED0B1A30EE210AF4
:1057600080ED080A90ED080AD0ED041AB4EEE10AC3
:10577000F1EE10FA04DD90ED040A80ED080A76E0FF
:1057800090ED080AD0ED041AF1EE611AB4EEE10AC8
:10579000F1EE10FA6BD290ED040AB1EE400A80ED02
:1057A000080A64E0FFE70178012960D190ED0F0A53
:1057B000D0ED101A30EE610AD0ED011A20EE210A68
:1057C00080ED090A90ED020AD0ED0F1A20EE210AB1
:1057D00080ED0A0A90ED0D0A80ED0E0A90ED0C0A9C
:1057E00080ED0D0A90ED0F0AD0ED101AB0EE002AF0
:1057F00002EE610AD0ED111A30EE210A80ED0C0A9A
:1058000090ED030AD0ED0C1A20EE210A80ED0B0A70
:1058100090ED090AD0ED0A1A30EE210AD0ED0B1AEC
:1058200030EE210AD0ED081A30EE210A80ED080A88
:1058300090ED080AD0ED041AB4EEE10AF1EE10FA88
:1058400004DD90ED040A80ED080A10E090ED080AEE
:10585000D0ED041AF1EE611AB4EEE10AF1EE10FA9D
:1058600005D290ED040AB1EE400A80ED080A90EDF1
:10587000080A0EE70000000000B102B9704701708D
:1058800092ED001A80ED011A92ED011A80ED021AD4
:1058900092ED021A80ED031A80ED040AC0ED050AAC
:1058A0009FED0C1A80ED0E1A80ED0D1A80ED0C1A8A
:1058B0009FED081A80ED081A80ED0B1A80ED0A1A88
:1058C00080ED091A80ED111A80ED101A80ED0F1A83
:1058D00000BFD3E70000000010B5234B1B685B69D5
:1058E00043F04003204C246863611F4B1B68DB6856
:1058F00043F010031C4C2468E3601C4B1B681B68BE
:1059000023F00103194C2468236007E0174B1B6840
:105910001B6823F00103154C24682360134B1B689C
:105920001B6803F00103002BF0D1114B0F4C2468CE
:10593000A3600E4B1B68D8600C4B1B6819610B4BA6
:105940001B685A60094B1B681B6843F48023074C93
:1059500024682360054B1B681B6843F00103034C5C
:105960002468236010BD00005C0E00203C0F002066
:105970000448004011490968C96821F400510F4AE0
:105980001268D1600E490968096821F001010C4ACA
:10599000126811600A49096848600949096809687C
:1059A00041F00101064A1268116004490968C9689A
:1059B00041F40051014A1268D16070475C0E00202A
:1059C0003C0F002004480068C06820F400500249E1
:1059D0000968C860704700005C0E002070B504467E
:1059E00000252068C06800F04000A0B9681E21684A
:1059F000C860FCF7D1FB054607E0FCF7CDFB401B78
:105A0000B0F57A7F01D9032070BD2068C06800F02E
:105A100040000028F1D00020F6E7000010B54D4B03
:105A20001B681B6823F001034A4C246823604A4B1F
:105A30001B681B6823F00103474C2468236007E0C0
:105A4000444B1B681B6823F00103424C246823600D
:105A5000404B1B681B6803F00103002BF0D107E0EB
:105A60003D4B1B681B6823F001033B4C24682360FB
:105A7000394B1B681B6803F00103002BF0D1354B39
:105A80001B68364CA34205D94FF40013334C4C3CF1
:105A900023601BE02F4B1B68314CA34205D94FF408
:105AA00000132E4C503C236010E02A4B1B682C4CFA
:105AB000603CA34205D94FF40013294CB83CE36085
:105AC00004E04FF40013264CB83CA360224B1B6843
:105AD000224CA34205D94FF00063204C4C3C23607C
